:020000040000FA
:0400000080312428FF
:100008007E1480310B1F22284E01191A0F1E132847
:10001800400145088A0044080A0080312228991ABC
:100028008F1E1D28400143088A0042080A008031BB
:1000380022289A18901C22288231B6227E100900A4
:1000480080312628F001F101F201F301F401F501F4
:1000580020308400003085001C30823186228031B7
:10006800A0308400003085004030823186227E1026
:10007800400180313F288231512280313D30F800E3
:100088000230F9008231922280318B170B17400120
:10009800B701BA01B801B901AA2818129812BB1CF5
:1000A800692882318C2280314001300831040319DB
:1000B800672801308231752280311E304001B80036
:1000C8000030B900AE280230AB288031CE20803114
:1000D800AE28BB1C782882318C22803140019816CA
:1000E8000130B0020030B13B3B1D942882318C2294
:1000F8008031400130083104031D942898120230E1
:100108009128BB1C942882318C228031400118161A
:10011800E830B4000330B5000330823175228031F5
:1001280001304001B2070030B33D01303302F530F1
:1001380003193202031CAE28AA280130B402003089
:10014800B53B34083504031DAE281812003082313F
:100158007522803140013B1CAE283B10121542012C
:100168009D019E0140013608C800C9014908003AAE
:100178000319BF28AA284808003A03195128013A48
:1001880003196D28033A03198528013A0319A12890
:10019800AA28AE284001B001B1018E1AD728013033
:1001A800B0070030B13D0E1ADD280130B00700302D
:1001B800B13D8E19E3280130B0070030B13D0E1B68
:1001C800E9280130B0070030B13D8E1BEF2801301F
:1001D800B0070030B13D8D1BF5280130B007003065
:1001E800B13D0E18FB280130B0070030B13D8E1824
:1001F80001290130B0070030B13D0E19072901303F
:10020800B0070030B13D0D1A0D290130B00700309C
:10021800B13D8D1A13290130B0070030B13D0D1BD7
:1002280019290130B0070030B13D0C191F290130E0
:10023800B0070030B13D8C1825290130B0070030D7
:10024800B13D0C1808000130B0070030B13D08007E
:100258004E019912A430F8000130F90082319E2233
:1002680081314E011912F730F8000130F90082315E
:1002780098228131083042019F0080309D0024304F
:100288009E0044309B009C01C730F8000230F90002
:100298008231AA228131BF30F8000230F900823160
:1002A800A4228131C330F8000230F9008231B02233
:1002B800F001F501F4014030FA007A08FB00F3017F
:1002C800F201F1014E01991608008F298C1D0800D2
:1002D8000430F6007608B700BA01BA0A08008C1D87
:1002E80086293708031D0800BB140230F60076087B
:1002F800BA000F30F6007608B70008003708031D6B
:1003080008003B15BA0108008C1D82290F30F60041
:100318007608B700080040013A08F600F7017708A8
:10032800003A03199829A3297608003A03196A297B
:10033800013A03197329033A03198829A3290800E4
:100348007308203E86008701810142011D1DB729DF
:100358007308203E860087018114400141088A0005
:1003680040080A00813142019D1CC5297308203EBE
:1003780086008701011540013F088A003E080A00EF
:1003880081317308203E8600870101080319D329AB
:1003980040013D088A003C080A008131080082318A
:1003A800122208004001980199019A010730920031
:1003B800F0309300FF3094007E01CE01C301B801F4
:1003C800C401B901CF01BA01C501D0011F30BB007A
:1003D800C6013F30D1003F30BC00C7013F30D200DA
:1003E8000F309200080040307B0203180F2A74086F
:1003F800A03E86008701010842019A000130F600FC
:100408007608F407403074020318F4010130F6004E
:100418007608FB0708004E01191208004201190866
:10042800F6007308283E86008701760881000130AF
:10043800F6007608F307083073020318F301013059
:10044800F6007608F10708000130450190008F0199
:1004580091017C308D008C014E0190109A14C630A9
:10046800F8000230F90082319222E03045018E0016
:10047800080040013B14813169218231400138086C
:10048800390403194B2A0130B8020030B93B370848
:10049800031908000130B702080082317E22823138
:1004A8008131D621823182316B22823182312822F8
:1004B800823181312C210800400146084704031984
:1004C800080047088A0046080A00823108006030A0
:1004D80051018D008F019101063093009001920126
:1004E8000800F9007908F80078084001B600823160
:1004F8008C2208004F0196019701980199019A01F1
:100508009B010800640080010131890B872A0034AF
:100518004001B201B301BB103B110800790840014A
:10052800C7007808C600080079084001C5007808A7
:10053800C400080079084001C3007808C200080018
:1005480079084001BF007808BE000800790840011A
:10055800C1007808C000080079084001BD0078088B
:10056800BC0008004E0190108231602208006934F6
:1005780041346134573442011D121D16080082317E
:0805880012220800080008001F
:020000040001F9
:0A000E00EC3FFC3F9F3FFF1FFF3F48
:00000001FF
