:020000040000FA
:0400000080313728EC
:100008007E1480310B1F09280A2835284E01191E35
:100018000E280F281A280F1E122813281A28400104
:1000280046088A0045080A0080313528991E1D288F
:100038001E2829288F1E2128222829284001440803
:100048008A0043080A00803135289A1C2C282D285C
:100058003528901C30283128352883316323803196
:1000680035287E10090080313928F001F101F201AC
:10007800F301F401F50120308400003085001D30C3
:10008800833133238031A030840000308500403034
:100098008331332380317E104001803153288231EF
:1000A800FA228031CC30F8000230F90083313F2346
:1000B80080318B170B17B8304001A5000B30A60014
:1000C800B801BB01003083311723803140013C1C4B
:1000D8006E286F286A283C10121542019D019E0166
:1000E8001F2925082604031D7A287B286A28181644
:1000F80098123C1D802881289D288331392380311E
:1001080040012008210403198A288B28982898166A
:100118000130A0020030A13B013083311723803128
:100128004001A201A20A6A280230833117238031D4
:100138006A288131392180316A283C1DA428A528E4
:10014800D728833139238031400120082104031D39
:10015800AE28AF28C7289812053022060319B528FB
:10016800B628C2280A3022060319BB28BC28C22890
:100178000F302202031CC128C228D2280230833142
:1001880017238031D22825082604031DCC28CD2822
:10019800CE2898160130A0020030A13B0130400162
:1001A800C9004908A2070130A3070030A43D013067
:1001B8002402F53003192302031CE328E428362916
:1001C80000308331172380316A283C1DEC28ED2844
:1001D800FB28833139238031400118129812B83036
:1001E800A5000B30A600033083311723803101307E
:1001F8004001A3070030A43D01302402F530031963
:100208002302031C082909293629003083311723C2
:1002180080316A2825082604031D13291429362944
:10022800181600308331172380316A280030833153
:10023800172380316A2840012708C900CA014A08E3
:10024800003A031928291A294908003A0319752878
:10025800013A0319A128033A0319E928013A0319B5
:100268000E291A296A28803137284001A001A101E6
:100278008E1A3F29402944290130A0070030A13DAA
:100288000E1A472948294C290130A0070030A13D02
:100298008E194F29502954290130A0070030A13D5B
:1002A8000E1B572958295C290130A0070030A13DB1
:1002B8008E1B5F29602964290130A0070030A13D09
:1002C8008D1B672968296C290130A0070030A13DE2
:1002D8000E186F29702974290130A0070030A13D3C
:1002E8008E18772978297C290130A0070030A13D94
:1002F8000E197F29802984290130A0070030A13DEB
:100308000D1A872988298C290130A0070030A13DC2
:100318008D1A8F29902994290130A0070030A13D1A
:100328000D1B972998299C290130A0070030A13D71
:100338000C199F29A029A4290130A0070030A13D4C
:100348008C18A729A829AC290130A0070030A13DA5
:100358000C18AF29B029B4290130A0070030A13DFD
:100368000800E6298C1DB929BA29FA290430F600B3
:100378007608B800BB01BB0AFA298C1DC429C52917
:10038800D4293808031DC929CA29FA29BC140230FE
:10039800F6007608BB000F30F6007608B800FA2998
:1003A800BB01FA298C19D929DA29E1293808031D52
:1003B800DE29DF29FA293C15D4290F30F600760802
:1003C800B800FA2940013B08F600F7017708003A1F
:1003D8000319EF29FA297608003A0319B629013AD0
:1003E8000319C129033A0319D629FA2908004E012D
:1003F80099123930F8000230F90083314B238131EA
:100408004E0119129330F8000230F9008331452368
:100418008131083042019F0080309D0024309E00C9
:1004280044309B009C017630F8000330F90083319A
:10043800572381316D30F8000330F900833151239F
:1004480081317130F8000330F90083315D23813147
:10045800F001F501F4014030FA007A08FB00F301DD
:10046800F201F1014E01991608007308283E860032
:100478008701810142011D1D422A432A4E2A730821
:10048800283E860087018114400142088A004108FD
:100498000A00823142019D1C522A532A5E2A73089F
:1004A800283E860087010115400140088A003F0860
:1004B8000A0082317308283E860087010108031963
:1004C800662A672A6E2A40013E088A003D080A000B
:1004D8008231712A8231B3228231080040019801A9
:1004E80099019A0107309200F0309300FF30940090
:1004F8007E01CE01C301B801C401B901CF01BA011F
:10050800C501D0011F30BB00C6013F30D1003F30CC
:10051800BC00C7013F30D2000F30920008004030C5
:100528007B020318982A992AB02A7408A03E8600EC
:100538008701010842019A000130F6007608F407A5
:1005480040307402031CA92AAA2AAB2AF4010130FC
:10055800F6007608FB07B22A4E011912080042017C
:100568001908F6007308303E860087017608810076
:100578000130F6007608F30708307302031CC52A19
:10058800C62AC72AF3010130F6007608F1070800E9
:1005980040013C148131B5218231400138080319EA
:1005A800D62AD72AD92A0130B802250826040319E1
:1005B800DE2ADF2AE32A0130A5020030A63B080024
:1005C8000130450190008F0191017C308D008C0134
:1005D8004E0190109A147530F8000330F9008331F9
:1005E8003F238231E03045018E00080083312B2300
:1005F80082318231722282318331212382318231E8
:10060800E42282318131FB21823108004001470810
:1006180048040319102B112B162B48088A00470889
:100628000A0083310800F9007908F80078084001C9
:10063800A7008331392383310800603051018D00D0
:100648008F019101063093009001920108004F013B
:1006580096019701980199019A019B01080064008D
:1006680080010131890B342B00344001A301A4011E
:10067800BC103C11080079084001C8007808C70080
:10068800080079084001C6007808C5000800790804
:100698004001C4007808C300080079084001C00080
:1006A8007808BF00080079084001C2007808C10036
:1006B800080079084001BE007808BD0008004E0116
:1006C800901083310A23833108006934413461343E
:1006D800573442011D121D1608008231B32283319E
:0606E800080008000800F4
:020000040001F9
:0A000E00EC3FFC3F9F3FFF1FFF3F48
:00000001FF
